:020000040002F8
:10600000E85E0020C5630200CD630200CF6302009A
:10601000D1630200D3630200D563020000000000D8
:10602000000000000000000000000000D763020034
:10603000D963020000000000DB630200DD630200A0
:1060400045660200DF630200816B0200DF6302002D
:10605000DF630200DF630200A1650200AD6602009B
:10606000DF630200DF630200DF630200DF63020020
:10607000DF630200DF630200DF630200DF63020010
:10608000DF6302009D660200DF630200DF6302003F
:10609000DF630200DF63020055680200DF63020075
:1060A000DF630200DF630200316B0200DF63020086
:1060B000DF630200DF630200000000000000000058
:1060C000DF630200DF630200DF630200DF630200C0
:1060D000DF630200DF630200DF63020000000000F4
:1060E00000000000000000000000000000000000B0
:1060F00000000000000000000000000000000000A0
:10610000000000000000000000000000000000008F
:10611000000000000000000000000000000000007F
:10612000000000000000000000000000000000006F
:10613000000000000000000000000000000000005F
:10614000000000000000000000000000000000004F
:10615000000000000000000000000000000000003F
:10616000000000000000000000000000000000002F
:10617000000000000000000000000000000000001F
:10618000000000000000000000000000000000000F
:1061900000000000000000000000000000000000FF
:1061A00000000000000000000000000000000000EF
:1061B00000000000000000000000000000000000DF
:1061C00000000000000000000000000000000000CF
:1061D00000000000000000000000000000000000BF
:1061E00000000000000000000000000000000000AF
:1061F000000000000000000000000000000000009F
:10620000DFF810D000F08EF900480047B592020088
:10621000AFF30080E85E002030B450E8012F93B265
:10622000C48923448489A34228BF1B1B0489A34239
:1062300002BFBFF32F8F002007E0C3EA020340E84C
:106240000134002CE9D14FF001000A6030BC7047E6
:1062500050E8012FC2EA024240E801210029F7D1AB
:10626000704730B450E8022F1FFAA2F3C488A3424B
:1062700002BFBFF32F8F00200DE0C489234484891F
:10628000A34228BF1B1BC2EA034340E80234002C90
:10629000E8D14FF001000A6030BC704750E8022F8F
:1062A000C2EA224240E802210029F7D170470346A2
:1062B00053E8022FD988B2EB324F4FF0000017BFDE
:1062C00092B241EA014142EA014104E05A68B2EB6C
:1062D000324F08BF012043E80212002AE8D170477C
:1062E00030B4044654E8000F0D4644E80053002B38
:1062F000F8D1156030BC704730B4044654E8000F44
:1063000040EA010544E80053002BF7D1156030BC8A
:10631000704730B4044654E8000F00EA010544E831
:106320000053002BF7D1156030BC704730B40446E1
:1063300054E8000F80EA010544E80053002BF7D130
:10634000156030BC704730B4044654E8000F00EBD1
:10635000010544E80053002BF7D1156030BC7047AD
:1063600030B4044654E8000FA0EB010544E80053A4
:10637000002BF7D1156030BC704770B404464FF065
:10638000000054E8006F0D68AE4207BF44E80023E8
:10639000012044E800630E60002B1CBF0020F0E7E2
:1063A00070BC704730B4044654E8000F88422CBFDC
:1063B000451A054644E80053002BF5D1156030BC62
:1063C000704700000648804706480047FEE7FEE7A2
:1063D000FEE7FEE7FEE7FEE7FEE7FEE7FEE7FEE795
:1063E00059680200016202002DE9F05F05460020B5
:1063F00092469B4688460646814640241BE0284636
:1064000041464746224600F02FF853465A46C01AE6
:10641000914110D311461846224600F016F82D1A65
:1064200067EB01084F4622460120002100F00DF8DD
:1064300017EB00094E41201EA4F10104DFDC4846A1
:1064400031462A464346BDE8F09F202A04DB203A25
:1064500000FA02F1002070479140C2F1200320FAB7
:1064600003F3194390407047202A04DB203A21FAB5
:1064700002F00021704721FA02F3D040C2F120025D
:106480009140084319467047004870474CCF0200BE
:1064900040EA01039B0703D009E008C9121F08C0A6
:1064A000042AFAD203E011F8013B00F8013B521E26
:1064B000F9D27047D2B201E000F8012B491EFBD29D
:1064C00070470022F6E710B513460A4604461946FF
:1064D000FFF7F0FF204610BD421C10F8011B0029F9
:1064E000FBD1801A7047034611F8012B00F8012BED
:1064F000002AF9D11846704730B50B4601460020F6
:106500002022012409E021FA02F59D4205D303FA75
:1065100002F5491B04FA02F52844151EA2F10102F6
:10652000F1DC30BD064C074D06E0E06840F00103A9
:1065300094E8070098471034AC42F6D3FFF764FEA6
:10654000D4D60200F4D6020070B58C1810F8015BA6
:1065500015F0070301D110F8013B2A1106D110F8FC
:10656000012B03E010F8016B01F8016B5B1EF9D100
:106570002B0705D40023521E0DD401F8013BFAE786
:1065800010F8013BCB1A921C03E013F8015B01F8F1
:10659000015B521EF9D5A142D8D3002070BD000086
:1065A0002DE9F8430025DFF894804FF4807601242C
:1065B0002F460095304603F01DFD38B1D8F804038E
:1065C000204203D0304603F00BFD2543361D640006
:1065D0007F1CB6B2082FEDD34FF4BE74204603F0F3
:1065E00009FD48B1204603F0FBFC45F000456A4632
:1065F0000121002003F0C4FC15F0FF0F16D0012686
:1066000000242E420ED008EB8401D1F81005D1F8F9
:106610001015C0F304200A4AC1F3014152F82420A6
:1066200002B190477600641C082CEAD3002D02DAF0
:10663000684605F093FABDE8F8830000006000406A
:106640001035002070B54FF48076304603F068FABC
:10665000114CB50560B1304603F069FA0120C5F868
:106660000803607920B90120607121680020884703
:106670004FF48276304603F053FA00280AD03046B1
:1066800003F055FA0220C5F808032168BDE8704000
:106690000120084770BD00009C2B002002490248E1
:1066A000091F096800680847342C00202DE9FE43C3
:1066B0004FF48278404604F059F84C4F00254C4C7A
:1066C000012600B3404604F059F894F82E0010B1AA
:1066D00094F82F10D1B18DF8005061680191218993
:1066E000ADF80810E26832B1218B618362602181CC
:1066F000E56010B102E0257400E03E602168684664
:10670000884784F82F5094F82E0060B34FF48077B8
:10671000384604F02BF830B3384604F02FF8628B7B
:1067200094F82D108A420AD9A2EB010080B260834E
:106730002289A2EB0000626802EB400005E007D16D
:10674000E06828B184F82F60658303F0FDFF04E062
:106750008A4202D184F82F606583404604F00EF827
:106760002248001D06604FF48877384603F0FEFF8C
:1067700048B1384604F002F8257402208DF8000074
:106780002168684688474FF48A77384603F0EEFF61
:1067900028B1384603F0F2FF2574BDE8FE834FF0C0
:1067A00000484FF48C7967691DE000BFB7FA87F0A5
:1067B00028FA00F109EB80058F43284603F0D6FF45
:1067C00088B1284603F0DAFFA5F58C75E8088DF846
:1067D000040045F38000401C8DF800608DF8050032
:1067E000216868468847002FE0D1D6E70070004056
:1067F000BC35002000F0CAB970B50E46144900EB54
:10680000400001EBC0051446E86A183520B10128A4
:106810000FD0022805D113E0284600F0EBF9A04282
:1068200001D2002411E022463146284600F01AFA2F
:106830000BE0284600F0DEF9A042F4D20446F2E76D
:106840003146284600F0E1F90446204670BD0000BC
:10685000603C002004F040B9F0B5A449A4484FF0D2
:1068600080540B68D4F830210078D4F83411551CCA
:10687000C0F3031006D0944601270026BCF1060F92
:1068800003D00AE003F0FF0CF6E7B4F82453DFF876
:1068900064C2C5F30425CCF80050DDB2062D06D144
:1068A000032804D1DFF854C2934DCCF87450551C22
:1068B00004D09446BCF1060F03D00AE003F0FF0CAD
:1068C000F8E7D4F84452DFF838C2C5F34235CCF8C3
:1068D0000050DDB2062D08D1032806D1894DD5F828
:1068E00000C02CF0807CC5F800C0551C04D0944634
:1068F000BCF1060F03D00BE003F0FF0CF8E74FF0FC
:106900008045C5F80C61C5F810617D4D2D1F2E60C6
:10691000DDB2062D08D1032806D1DFF8E4C1032536
:106920000CF1640CCCF80050DDB2062D10D1032818
:106930000ED1DFF8D4C10525CCF80050724D783562
:106940002F60714D08352E600CF104063F2535602F
:10695000551C04D016460D46062E03D05BE0DEB271
:106960000546F9E7ED1E012D55D9684D2D68684E95
:106970003560664D2D1D2D68361D3560634D08351B
:106980002D68361D3560614D0C352D68361D35601E
:106990005E4D10352D68361D35605C4D14352D6803
:1069A000361D3560594D18352D68594E20363560E5
:1069B000564D1C352D68361D3560544D20352D68DB
:1069C000361D3560514D24352D68361D35604F4DCF
:1069D00028352D68361D35604C4D2C352D68361DFB
:1069E00035604A4D30352D68494E40363560474D4B
:1069F00034352D68361D3560444D38352D68361DCB
:106A00003560424D3C352D68361D35603F4D403573
:106A10002D68361D3560551C03D01646062E02D053
:106A200007E0DEB2FAE7D4F858523A4E05F04F05C7
:106A30003560551C03D01346062B02D008E0DBB2AC
:106A4000FAE735480368DB0702D06FF00103036003
:106A5000062A07D1C91E022904D93048016841F429
:106A60008061016027487438016841F47001016059
:106A7000BFF34F8FBFF36F8FD4E94C104FF010224C
:106A8000062907D1C01E032804D9D2F808021C49E0
:106A90001C310860D2F80002002803DBD2F804029F
:106AA00000281FDA012004F02FFF1521C2F8001280
:106AB0001B480368002BFCD0C2F8041201680029AF
:106AC000FCD0002004F020FFBFF34F8F0D48F038BA
:106AD0000168144A01F4E06111430160BFF34F8F74
:106AE00000BFFDE7114910480860F0BDE00F00F05D
:106AF000E80F00F0403501400DF0ADBA00C007408E
:106B00003C050040FCED00E010560040040400107D
:106B100020C50040E40E0040000400403C17004047
:106B200000E401400400FA050090D003AC2C0020E2
:106B30002DE9F047104E062700244FF4A0784FF4BB
:106B4000803900BF08EB840509FA04F0715961B17E
:106B5000D6F80413014208D02946304604F06AF8FA
:106B60000648D0E9002128469047641CE4B2BC42A4
:106B7000E8D3BDE8F087000000A00140EC3500201C
:106B80000148006800470000A42B002010B5124CFB
:106B900002202061606111A0A06104F17800E06131
:106BA0004FF4007020620020A06260620BA1A1641B
:106BB000E06204F51E71E1641021A065C4E91410BF
:106BC000E06509A1E01DFFF78EFC08A12046FFF754
:106BD0008AFC2020A07110BD603C00205465726DBD
:106BE000696E616C000000005254540053454747E1
:106BF000455200000269C1688A4203D88068401A81
:106C0000104400E0501A401E70472DE9F047C46858
:106C10001746894606464FF000083069A04201D960
:106C2000051B02E0B168201A0D1AB0686D1E001B2A
:106C3000A84200D80546BD4200D33D4670682A46AA
:106C400020444946FFF724FCB0687F1B2C44A8442D
:106C5000A944A04200D10024F460002FDDD14046B9
:106C6000BDE8F0872DE9F04104468846D4E90207E3
:106C7000C51BE168606816460844B54206D941461E
:106C8000FFF706FCB819E060BDE8F0812A464146EE
:106C9000FFF7FEFB761B08EB050132466068FFF745
:106CA000F7FBE660F0E700000FB4054B10B503A951
:106CB000044A029800F02AF810BC5DF814FB0000AA
:106CC000B98E0200442C002002E008C8121F08C13F
:106CD000002AFAD170477047002001E001C1121F5D
:106CE000002AFBD1704700000121202803DA8140EF
:106CF0000548014003E0402802DA2038814009B10C
:106D00000120704700207047FC06FFBD2DE9FF4FB2
:106D100089B09B460446002506E025280BD05A463C
:106D20000B999047641C6D1C20780028F5D10DB09C
:106D30002846BDE8F08F0027B8460122474900E009
:106D4000074314F8013F203B02FA03F00842F7D151
:106D500020782E2819D114F8010F47F004072A28AB
:106D60000ED06FF02F022078A0F1300109290CD845
:106D700008EB880102EB410100EB0108641CF2E71B
:106D80000A98641C50F8048B0A9020780028CED012
:106D9000642808D0692806D075281ED05A460B9959
:106DA00090476D1C58E00A994FF00A0901C90A91F1
:106DB000002802DA40422D2102E0390504D52B21BA
:106DC0008DF82010012103E0F90704D02021F7E716
:106DD0008A4608AE0DE00021FAE70A994FF00A0949
:106DE00001C90A91F7E74946FFF786FB303106F8FB
:106DF000011D0028F7D1ADEB060000F1200978074E
:106E000001D44FF00108C84502DDA8EB090000E0FD
:106E100000208046002706E008A85A46C05D0B996E
:106E200090476D1C7F1C5745F6DB04E030205A4626
:106E30000B9990476D1CB8F10001A8F10108F5DC31
:106E400005E016F8010B5A460B9990476D1CB9F1F5
:106E50000001A9F10109F4DC641C65E709280100BF
:106E600090F82400012801D01F207047EE207047C1
:106E700010B501220221002001F010FA08B1072804
:106E800010D107220221012001F008FA08B10728D9
:106E900008D100210A22084601F000FA08B10728AB
:106EA00000D1002010BD022001F002B970B500240D
:106EB000064D06E06868012110F8340003F02AFF4F
:106EC000641C28788442F5D3002070BDB82B0020C4
:106ED000F8B516460C4605460A2A01D20720F8BD29
:106EE00004F012F818B903F0D5FF0028F7D1134FBA
:106EF000102113487D603C70BE60FFF7E2FA00206D
:106F0000C7E904000F4E0DE005EBC40031680091A5
:106F100081788DF8011000780B4A694603F04AFF2A
:106F20000028DCD1641EE4B2EED2BDE8F84005488A
:106F30000021064A001D00F087B80000B82B002091
:106F4000F835002044CC0200898F02008D8A0200AF
:106F500010B572B603F0CEFA03F01AF90028FBD18F
:106F600011481249401AC408012000EB044010A146
:106F700003F028FA11480068C00700D000BE0220C4
:106F800000EB04400EA103F01DFABFF34F8F0B4836
:106F9000E43801680E4A01F4E06111430160BFF377
:106FA0004F8F00BFFDE700007CD7020004D702002E
:106FB000466174616C206572726F7200F0ED00E0E2
:106FC00053797374656D20726573657400000000F9
:106FD0000400FA050EB500210091CDE901106A46C2
:106FE00044F20100FFF7B4FF0EBD10B58268C3681C
:106FF000934203D001F034FF002010BD052010BDE6
:1070000029B112B1531E134203D0092070470E203C
:1070100070470160838000218160C160084670472D
:1070200010B58268C3689A1A83889A4203D801F01F
:1070300021FF002010BD042010BD0000014801F018
:107040008CBD0000F82B002010B55AB100684FF03D
:10705000FF3401294261C0E9024400D000210161EE
:10706000002010BD072010BD38B511480823582254
:10707000416800910F49006802F023FB002815D1F8
:107080000D4A69460D4801F06DFD04000ED1012145
:107090000A4801F0E2FD0123094A1946074801F0B8
:1070A00034FD0649012008390870204638BD00002B
:1070B0004CCC0200183600200DBD0200F82B002039
:1070C000FFFF7F00F8B50446002617460D468DF8F1
:1070D0000060684600F0D8F8D4E90201C04370EAC5
:1070E000010005D09DF8000000F0F2F80020F8BD86
:1070F00001F030FF40197141C4E902019DF8000020
:1071000000F0E6F8A761206900B125612146BDE8DD
:10711000F840002005F0D2B938B5044600208DF8BB
:107120000000684600F0B0F8D4E90201C04370EAFC
:1071300001000DD04FF0FF30C4E902009DF80000BF
:1071400000F0C6F82146BDE83840012005F0B6B988
:107150009DF8000000F0BCF8002038BD70B50A4E64
:1071600001460A48B578FFF740FF04464DB10020BC
:10717000B070711C0122C81D02F05CFD08B1FFF760
:1071800029FF204670BD0000142C0020703600201E
:10719000F0B5244E89B01F460D00044672603FD002
:1071A000A888296882B22048FFF72AFF002835D135
:1071B000A889A96882B21C481030FFF721FF002877
:1071C0002CD1202219496846FFF762F960690690C0
:1071D000207C00B101208DF814008DF81C70607CBB
:1071E00000B10E208DF81500E0680290A0680390B1
:1071F00020680190606800900A480D4A694608308E
:1072000002F0E4FC002809D1B0702068401C05D0D1
:1072100004490122491CC81D02F00CFD09B0F0BD53
:107220000720FBE7142C00207036002060CC020001
:10723000D9C5020010B501461048FFF7F1FE040061
:1072400019D10F480F4A0178515C19B1001D04F0A3
:1072500001FB02E00C3004F0D7F960B90849074897
:107260000839FFF7C2FE30B9054901220839044840
:1072700002F0F0FC0446204610BD000080360020DD
:107280001C2C0020902B002030B5EFF3108172B63B
:107290000D4A9468012324B10370002900D162B61D
:1072A00030BD93604FF0E023D3F88051074C254068
:1072B0001560C3F88041D3F8844154605A17C3F86D
:1072C000842100220270E8E790360020FC06FFBD12
:1072D0000B498A68002A11D000280FD1EFF31080E3
:1072E00072B60B684FF0E022C2F800314B68C2F86A
:1072F000043100228A60002800D162B67047000085
:10730000903600202DE9F041064608680C46411CE5
:107310004FF0A0474FF0010506D005FA00F1C7F87D
:107320000815206802F006FE6068411C02D00021AA
:1073300002F0EEFD3168A069C1F82405607D227D70
:1073400031681043C1F86C05D4E900123068C0F808
:107350001425C0F80C15207D012815D1A068411C0A
:1073600002D0002102F0D4FDE068411C05D0854028
:10737000C7F80855E06802F0DDFDD4E90212306874
:10738000C0F80825C0F81015BDE8F0812DE9F041DE
:10739000064608680C46411C4FF0A0474FF0010517
:1073A00006D005FA00F1C7F80815206802F0CCFDF8
:1073B0006068411C02D0002102F0B3FD3168A06971
:1073C000C1F82405607D217D32680843C2F86C0550
:1073D000D4E900123068C0F80C15C0F81425207DDF
:1073E000012815D1A068411C02D0002102F099FDAE
:1073F000E068411C05D08540C7F80855E06802F0F8
:10740000A3FDD4E902123068C0F80825C0F81015B1
:10741000BDE8F081400C01D000207047012070478A
:1074200070B51500044609D00020286034B12068EA
:1074300020B1A079800703D0072070BD0E2070BD59
:10744000084600F023FBC0B2142804D02179814201
:1074500003D8042070BD052070BDE288216800FBC0
:1074600002102860002070BD2DE9FC470025178818
:107470000646158090F82D001446894630B13A46EC
:107480002146484600F016FB051E09D1B0784FF0A2
:107490000C0A18B32088C846001DB84202D95046CD
:1074A000BDE8FC87684679DF0028F9D120880321F0
:1074B00008F8001020881921401C80B2208008F8AC
:1074C00000102088401C80B2208000EB0801BDF82D
:1074D000000005F022FA218808442080F07802227A
:1074E000C8B1218896F9033001F1030C4846BC4528
:1074F000D5D8425421884FF0010C491C89B2218013
:1075000000F801C02188491C89B2218009F80130A6
:107510002088401C20807068B8B1218890F9003024
:1075200001F1030C4846BC45B9D8425421880A22CF
:10753000491C89B2218042542188491C89B221808A
:1075400009F801302088401C2080308950B1CDE9F5
:1075500000474B460622022106F1080005F09EFA7C
:10756000051E9DD1308A50B1CDE900474B46072218
:10757000032106F1100005F091FA051E90D1308B21
:1075800050B1CDE900474B461522142106F11800F1
:1075900005F084FA051E83D1306A30B13B4622469D
:1075A000494601F0A8F9051EDBD1706A30B13B46AF
:1075B0002246494601F0A8FF051ED2D196F82C00BC
:1075C00038B13B4622464946304604F0D7FD051EF9
:1075D000C7D1307838B13B4622464946304602F0A2
:1075E0001DF8051EBDD128465AE718B504460020EF
:1075F000ADF8000013466A46204600F006F8002861
:1076000002D0BDF80000204418BD70B5E0B1DAB179
:10761000002402E0045D2C44A4B2651C8D4206D215
:107620001688A642F6D8061976789E42F2D18C4288
:107630000AD2A31C005D9BB200B1401E0004000CE6
:1076400002D01C188C4201D9002070BD138070BD7F
:1076500080F8301070472DE9F0410D00044606D047
:107660002CB195F87A000026012803D006E00E2000
:10767000BDE8F08195F89800012829D0D5F8A00040
:10768000042825D0D5F89C00042821D04FF001080B
:10769000A6702C2205F17801201DFEF7F9FE84F872
:1076A0003060D5F8A4006063D5F8A800A0634FF659
:1076B000FF70A4F8240404F58260C4F82004C4F820
:1076C0002664A4F82A6484F82C64207810B104E0BD
:1076D0000720CDE7FF2084F8540004F15507204629
:1076E000C4F81074FFF7BCFBA4F8140404F21442AD
:1076F00039462846FFF7B8FE0028B9D104F23120F8
:10770000C4F818042046FFF7ABFBA4F81C0404F2ED
:107710001C4205F13C00D4F81814FFF7A5FE002820
:10772000A6D184F85180208BA4F8480084F83C80CE
:10773000266484F85060606900216064454604F165
:107740003C02781E72DF002892D1257090E710B5B8
:107750000288102A1BD0112A20D0262A1DD1007A97
:107760000C46012801D0022817D1A0780521401C21
:10777000B0FBF1F201FB1201204600F03AF80028BC
:107780000BD0A16B002908D0BDE810400847C27B90
:10779000012A02D18088A1F8240410BD0C460021E2
:1077A00084F82E148088B4F824148842F5D1207906
:1077B0000028F2D10121DFE710B5044690F854000B
:1077C00074DF012084F82E04002084F8300484F84B
:1077D00050000621204601F05BFB002808D1A1786B
:1077E000204600F006F810B1A16B01B188470020D7
:1077F00010BD2DE9F05F044600780F4698B1A770E0
:107800000025C4F82654A4F82A5484F82C54A079EE
:10781000012608B1012F09D0E07980B1012F05D0F0
:10782000022F03D00BE00820BDE8F09F616B21B16F
:1078300084F82D640820884701E084F82D5404F270
:10784000274100200A5C0AB1304603E0401C0628AC
:10785000F8D300204FF002084FF0030B012F06D0A1
:10786000022F0CD0032F0FD0042F15D110E0A179D7
:1078700029B194F8241011B908B130460DE0E1792E
:1078800011B108B1404608E0207A08B1584604E03A
:10789000607A08B1042000E02846A070616B41B115
:1078A000032801D0042804D1607910B194F82E0483
:1078B00098B184F82F5404F13C0018210746FEF7D4
:1078C00000FE84F83C6004F12C0004F017F958B174
:1078D00094F82C0084F8510008E084F8305484F8BF
:1078E0002F6407208847E6E784F8516094F8240065
:1078F00058B104F1280004F001F920B194F82800EF
:1079000084F8520001E084F8526084F85050A27864
:1079100004F2264104F582694FF0060A052A64D272
:10792000DFE802F07C030F22420084F83160C4F8E3
:107930002054C4E9101584F83C808020A4F8480045
:1079400055E084F8318094F82420384612B107229B
:10795000027001E080F800B0228A8281C4F82054CD
:107960004160E168B96042E06069B860208BB8812D
:1079700094F824003D460028204602D084F83CA01C
:1079800001E084F83C6005F05BF850B185F81480A4
:107990000421204601F07CFA38BB052184F831101F
:1079A00021E084F831B01EE0E069B860208CB88135
:1079B00094F824003D460028204602D084F83CA0DC
:1079C00001E084F83C6005F03BF848B185F814808C
:1079D0000421204601F05CFA38B984F831A002E0B5
:1079E000042084F83100C4F82094A07878B13A4695
:1079F00004F15400D4F8201472DF00287FF414AF8F
:107A000094F8301094F8540073DF0028F6D1616BBD
:107A100011B194F831008847002005E784F831500F
:107A2000F5E7000070B5040012D001461C2214488E
:107A3000FEF72EFD1248134D0560206850B17ADF25
:107A4000002806D12068016829604068686005E068
:107A50000E2070BD0B487BDF0028FAD108484FF696
:107A6000FF711438084A20F8041B054934390160B5
:107A70000021FFF7E9FA0028EBD0032070BD0000D9
:107A800064340020882B0020D9C9020010B50446B8
:107A900000F006F808B1204610BD142010BD00000B
:107AA000142801D3002070470146014801F053BE5D
:107AB000843400207CB5054608880C460930904285
:107AC00001D90C207CBD68466DDF0028FAD12188E1
:107AD0000820685420881B21401C80B22080295433
:107AE0002088401C80B220802844DDF8011001600D
:107AF000BDF8051081802088801D80B220809DF80F
:107B00000010490800D0012129542088401C208001
:107B100000207CBDF8B52B4D018804466E882129D4
:107B20003BD015DC2848294A1029A0EB02004FEA77
:107B3000D0004FF0030202EB004013D0112925D0F2
:107B4000132929D100231A46852130467FDF17E00B
:107B50003B2932D052292AD056291DD180881321A1
:107B600076DF0DE01AA102F02DFC072000F0B8FB33
:107B700008B1FFF72FFAA1886980184801F058FF73
:107B8000002809D0BDE8F840FFF724BA14A102F09C
:107B900019FC4FF6FF706880F8BD00200090A088A7
:107BA00069468FDF0028F7D0FFF714FAF8BD0023ED
:107BB0001A4619463046B1DFE2E78088132176DFA6
:107BC000DEE70000E02A00207CD7020004D7020094
:107BD000436F6E6E6563746564000000B82F00200B
:107BE000446973636F6E6E656374656400000000C2
:107BF00010B51A4C0188606810290ED011292BD1BC
:107C0000401E606028D1FFF733F9002824D0216896
:107C1000002921D0BDE810400847D0B90021012239
:107C2000084600F03BFB08B107280FD107220221CC
:107C3000012000F033FB08B1072807D104220221FC
:107C4000002000F02BFB20B1072802D0216801B1F1
:107C500088476068401C606010BD0000802B0020D9
:107C60002DE9F04701883B4E40F2F3194FF6FF75BE
:107C700010291BD011293ED0122954D0502946D1A9
:107C8000C188F289841D914241D1618902293ED186
:107C90008688304601F096F9050038D004F10C00D2
:107CA00000F0C2F9A8B3294630464EE0C17B878870
:107CB000044601292BD1A846284601F083F9050086
:107CC00017D02F8000202872234843464A46016877
:107CD000C5F80A104068C5F80E0004F1100105F15E
:107CE0000A0001F03CFA6872F08900280FD1294699
:107CF0002AE0042013E0808801F064F9040006D033
:107D00006068FFF709FA08B104F008FA2580BDE8B9
:107D1000F087FFE76868FFF7FFF90028F7D0BDE8B4
:107D2000F04704F0FBB987880646384601F04AF967
:107D30000400ECD02B464A4606F1080104F10A0083
:107D400001F00DFA607221463846BDE8F04700F0B8
:107D500019BE000064340020882B00202DE9F04F6C
:107D6000044686880188424897B0834610290CD083
:107D7000112950D0103019296AD01A2974D1217ACA
:107D80000C09042C4DD301224CE0394D083DA86864
:107D9000C0430B9069680BA801F0FEFC0B990CA87E
:107DA00000F08AFD2C220CA96846FEF771FB002723
:107DB000E946A84610E000BF09EB47005FF0000568
:107DC000B0F804A008EB85005146001D01F0B8FC96
:107DD0006D1C1E2DF6D37F1C0098B842ECD8142ED3
:107DE00005D317B00420BDE8F04FFFF7F3B83146D4
:107DF000584601F0BBFC314608F1040001F0B6FC26
:107E0000E07B022830D117B03146BDE8F04F18486A
:107E1000001D01F0ABBC17B03146BDE8F04F01F0DA
:107E20008FBC0022314601F02EF8032C01D3012231
:107E300000E000220E4831460C3001F024F8022CFC
:107E400001D3012200E0002209483146083006E053
:107E5000217A002908D1617AC1F3C002314617B0F6
:107E6000BDE8F04F01F00FB817B0BDE8F08F00008B
:107E700088340020F0B585B016460F4604001D4634
:107E800014D004AA19466069FFF7CAFA00280BD17A
:107E9000A5F57F40FF380BD0049848B1007848B171
:107EA0003088F42808D9072005B0F0BD0E20FBE784
:107EB0000520F9E70820F7E70020009001900290E4
:107EC0000390A088ADF8000001208DF80200CDE9F4
:107ED000026769462846AEDFE6E7000070B5334D1D
:107EE00004008EB02DCD08AE86E82D005BD0E9B33E
:107EF0000868A061214608A862DF002851D12078D7
:107F000001258DF83200ADF83050A21C0CA928468E
:107F1000A8DF002845D120216846FEF7D2FA0220CA
:107F2000ADF8000020788DF802008DF80C509DF817
:107F30000D00F426ADF8046040F00C008DF81150EF
:107F4000ADF806508DF80D008DF81250608804F1E0
:107F50000C02694600F0BAFB002822D120216846B5
:107F6000FEF7AFFA0320ADF8000000E01BE0207838
:107F70008DF802008DF80C509DF80D008DF8115011
:107F8000ADF8046040F010008DF81250ADF80650C6
:107F90008DF80D008DF813506088221D694600F0A1
:107FA00095FB0EB070BD0E20FBE7000028CC020050
:107FB00030B587B00446002928D0002C26D00846CA
:107FC0002188102924D0502928D057291ED10546B0
:107FD000A18840696A46FFF723FA002816D1009865
:107FE0000078002812D0A86900280FD0182101A815
:107FF000FEF767FA01208DF804000295A088ADF81D
:108000000C0000980490A96901A8884707B030BD0A
:1080100007B02146BDE8304003F0A2BC07B02146BE
:10802000BDE8304003F028BD007800F00100704743
:108030000149085C70470000DDCB02000649095C7D
:108040004FF0A040D0F81005C84010F0010000D05B
:10805000012080F001007047DDCB02002DE9FC41DA
:108060000646C0074FF000050ED0104F0024012235
:10807000385D009500231146019501F001FF641C55
:10808000042CF4D300F046F8B0070DD5074E0024B9
:10809000361D0022305D032300951146019501F045
:1080A000EFFE641C042CF4D3BDE8FC81D9CB0200A4
:1080B00007490B5C4FF0A041D1F8042501209840FE
:1080C00020EA0203C1F808351040C1F80C057047DA
:1080D000D9CB02000249085C012101F076BF000003
:1080E000D9CB02000249085C002101F06EBF0000FC
:1080F000D9CB02000649095C4FF0A040D0F8040536
:10810000C84010F0010000D0012080F0010070474D
:10811000D9CB020010B500242046FFF7DBFF641C1A
:10812000042CF9D310BD10B500242046FFF7DAFF68
:10813000641C042CF9D310BD10B50246064B4FF059
:10814000FF3000215C5C944201D1084610BD491CFF
:108150000429F7D310BD0000DDCB020070B50C4E32
:108160000C004FF0000530600BD0012000F06AF8E1
:1081700008B1022004E0002000F064F800B10B20F8
:108180002070706810B9FEF773FE0546284670BD72
:10819000802B002010B5002000F0DCF908B1062883
:1081A00006D1012000F0D6F908B1062800D1002040
:1081B00010BD00002DE9F0470D468146FFF7BCFFDA
:1081C0000446042836D2DFF874801B481C4EA8F100
:1081D0000C0725B3012D0ED0022D2BD104EB44004A
:1081E00030444578002D25D0B968002922D0284692
:1081F000BDE8F047084704EB4401755C0E44717814
:1082000049B10E4A4FF40041093A8068FEF75AFF1F
:1082100008B987F80390B17808F80410E2E780689D
:10822000FEF77AFF04EB4401314418F804008D781E
:10823000A842D7D0BDE8F087E4CB0200182B00207D
:1082400020340020042801D2FFF7F8BE0020704738
:108250000146104810B54088042907D007290ED0E0
:108260000A2915D1BDE8104003F0E4BF132176DFE1
:108270000CE000280CD0BDE81040FEF7ABBEA0F526
:108280007F41FF3904D10448FFF796FA0828F0D15E
:1082900010BD0000E02A0020C42F002070B500238C
:1082A000042810D20D4D00EB4004012A02D101290F
:1082B0000CD00022094E00EB4000304461B101298E
:1082C00006D0022906D00723184670BD0E30C2B270
:1082D0002A55F9E74270F7E78270F5E7203400206D
:1082E000044A014600201279D20702D0084600F065
:1082F0004DB870470C2B002070B506461E48002470
:10830000C0E90161B00720D50025012211462846A9
:10831000FFF7C4FF6D1C0446042D02D2002CF4D0DC
:1083200013E094B940F2666204211448FEF7D0FDD0
:1083300004000AD1FEF7BAFD040006D10F48104A26
:108340000021001FFEF780FE0446F00712D0012036
:10835000FFF784FE74B909480A4A00210C38FEF779
:1083600073FE040006D10548074A01210838FEF7CC
:108370006BFE0446204670BD0C2B0020F0CB0200A3
:1083800051860200E1910200A76E02002DE9F05F24
:108390006E4C054600266078B34618B184F801B0EB
:1083A00000F006FF6A4F4FF47A694FF4C87A4FF035
:1083B0000108182D69D2DFE805F00C131338475473
:1083C000696E727B727BC58484848484B3B6B9BCC5
:1083D000C5C500F0EDFE3868FEF79EFE06465CE07F
:1083E0000020FFF787FE00284FF0000008D0FFF7BD
:1083F00071FE022D02D14FF4E16008E0484606E02C
:10840000FFF770FE022D01D1C82000E05046410C5C
:10841000C0034FF4FA72801841F100012570520038
:108420000023FDF7E1FF01462AE00020FFF762FE8E
:1084300000284FF0000004D0FFF74CFE4FF44870C6
:10844000E5E7FFF74FFEDFE70020FFF753FE0028C8
:108450004FF0000002D0FFF73DFECFE7FFF742FEEE
:10846000D4E70020FFF746FE00284FF0000002D0BE
:10847000FFF730FE01E0FFF735FE257041F69A1157
:1084800000223868FEF71EFE064646E00020FFF791
:108490000FFE257008E0002051E025703DE084F8D3
:1084A00001800120FFF704FE002240F6CD41E8E7FD
:1084B00084F801800120FFF7FBFD00224FF480418A
:1084C000DFE77868FEF728FE0646D5F1110000D0F8
:1084D0002EB10220FFF7FEFD84F802B01DE0012856
:1084E00016D980B2C8214843C117C90341EA504197
:1084F000C0034FF4FA72801841F1000152000023CA
:10850000FDF772FF014600227868FEF7DBFD0646A4
:108510000220FFF7E7FD84F802803046BDE8F09FB7
:1085200000F046FEB9E700F043FEB4E700F040FE7D
:1085300004E000F03DFE0020FFF7D4FD0120FFF72E
:10854000D1FDAAE7FFF7EFFDA7E700000C2B002005
:10855000E4CB0200012104F008BB00002DE9F84F34
:108560000546861C00208DF8000091460F464FF00E
:10857000010A6846FEF788FE1B4C04F21C4860683E
:108580003860D4E90101194F401A3968081A0EE021
:108590000121404601F0FAF800F03AFE014640465B
:1085A00001F0F4F8D4E90101401A3968081A401CB6
:1085B0008642EDD8B9F1000F03D0052065F389108C
:1085C00002E0062065F39F5061683A68114004EBB1
:1085D0008101C8606068304460609DF80000FEF76B
:1085E00077FE5046BDE8F88F40380020542C00201C
:1085F00030B482680468531C8360A154D0E901122E
:108600008A4202D330BC01F042BB30BC704700004C
:10861000044881684068814201D1012070470020F0
:108620007047000040380020034630B5074800215D
:108630000478426806E000BF02EBC10005789D4265
:1086400003D0491CA142F7DB002030BDB82B00202D
:1086500000780221FFF7AEBD05494FF0FF32082830
:1086600041F8202002D3084480F8482070470000D9
:1086700010350020F0B54FF0FF3512B10023082669
:1086800001E008230C260C4C05E000BF54F82370D1
:108690007F1C04D05B1CB342F8D32846F0BD2618DB
:1086A0005DB286F8305044F82310002AF5D1E11865
:1086B00081F84800F1E70000103500200249084425
:1086C00090F9300070470000103500202DE9F0438C
:1086D0008146887891B090460C4600B901208DF80B
:1086E0003E002088ADF83C0000250095607C69467E
:1086F00003F088FD6E46A07C711C03F083FDE07BD7
:1087000000289DF8020002D040F0080001E020F0AF
:1087100008008DF80200217C11B140F0100001E04A
:1087200020F010008DF80200217B11B140F0010013
:1087300001E020F001008DF80200217D09B1022145
:1087400000E0012161F342008DF802001C2102A823
:10875000FDF7B7FE607BC10601D4800617D50E95E4
:108760000EAFE07C791C03F04DFD9DF838000797B3
:1087700020F00F00401C20F0F00010308DF8380081
:108780009DF83A0020F00600801C8DF83A00607BCE
:108790008DF80800A07B8DF80900142109A8FDF7C9
:1087A00090FE0FA8CDE90906A088ADF83000A068BA
:1087B00020B1E088ADF82C00A0680D90A06998B3B6
:1087C00001950088ADF81000A06901AD01A94088AD
:1087D000ADF81200A069406806950390A069007B7F
:1087E00003F010FDA069691C407B03F00BFDA0693C
:1087F000807A00289DF8060002D040F0080001E0D1
:1088000020F008008DF80600A169C97A11B140F086
:10881000100001E020F010008DF80600A169097A2F
:1088200019B140F0010002E00DE020F001008DF8E8
:108830000600A169897B09B1022100E0012161F3F1
:1088400042008DF80600E06900B10590434609AA90
:1088500002A94846AADF11B0BDE8F08370B5084C04
:10886000050009D010342168002907D0086820606D
:10887000496828468847F6E70834F4E770BD0000E9
:10888000FC340020054A012120B1012805D1917056
:10889000FFF7E4BF51700020FAE77047FC34002076
:1088A00010B5D0E90234D1E90220D11AA04101D398
:1088B000012010BD002010BD73B58CB0064600200D
:1088C00000900D9880B100246D4621460DA800F05F
:1088D00042FF30B1009805EB400084800098401CB6
:1088E0000090641C142CF0D32C2269463046FDF70E
:1088F000CFFD0EB070BD2DE9F04117880646B81DBA
:1089000014460D46984202D90C20BDE8F08131880A
:10891000072206290AD34FF4486C4FF6FF736145CE
:1089200001D9994202D17088062801D21046ECE79D
:10893000604501D99842F9D1994203D0984201D0BB
:108940008142F3D80520E85520881221401C80B2CE
:10895000208029542088401C80B220804119308812
:1089600003F0DBFF2188084480B220804119708821
:1089700003F0D3FF2188084420800020C5E7FEF7DC
:1089800029BB000038B54A7A0F4B62B100220A7247
:108990005969002906D001228DF80020ADF80200A7
:1089A0006846884738BD0A7A62B19B684C680246BF
:1089B00019462046FEF786FB0028F3D0BDE8384074
:1089C00003F0ACBB5B68F1E76434002070B588B09D
:1089D0000646002005900690ADF81410ADF816106C
:1089E0000190029001AA05A9304690DF050021D030
:1089F00002F016F90346114811493246401AC108DF
:108A0000012000EB014004460E4901F0E6FCBDF8F0
:108A1000042012B9BDF8060028B1BDF80630204682
:108A200009A101F0DAFCBDF808201AB12046164968
:108A300001F0CCFC08B0284670BD000004D702004D
:108A400004D7020050CF020054686520726571752A
:108A500065737465642054582F5258207061636B9D
:108A60006574206C656E67746820697320746F6F1D
:108A7000206C6F6E672062792025752F2575206F19
:108A800063746574732E00009CCF020070B50024DF
:108A90000F4D10E0686800EBC406307802F0F0F982
:108AA0007178012901D0012100E000214140307896
:108AB00000F05CF9641C28788442EBDBD5E9040102
:108AC000084303D0BDE8704003F014BD70BD000042
:108AD000B82B002010B50021024800F068FE80F39A
:108AE000100010BD5C3C00204FF480328A400168C9
:108AF000C1F848230068C0F8082370474FF4A072FB
:108B000002EB810189B200F0A1B92DE9F0410546DF
:108B10000E464FF4A07000EB860081B228684FF437
:108B20008034B440984622F07F47C0F80843286854
:108B3000C0F84843286801F001FE286800EB860071
:108B4000C0F840752868C0F84443B8F1000F02D05F
:108B50002868C0F80443BDE8F0810068D0F8040537
:108B60007047000070B54379234C44F823204279C4
:108B7000231D03EBC202224C1579204A121BD40894
:108B80002DB10825022000EB04401EA130E005684D
:108B90000A88C5F8082590F904208978002A4FEA48
:108BA000411104DB02F1E02282F8001405E002F03A
:108BB0000F0202F1E02282F8141D90F90410012244
:108BC000002909DB01F01F0502FA05F549098900B2
:108BD00001F1E021C1F800514179002503EBC10109
:108BE0000A71417943F83100032000EB04400EA1E3
:108BF00001F0E8FB284670BD302C002064D702004D
:108C000004D7020052544320696E7374616E636529
:108C100020616C726561647920696E697469616C48
:108C2000697A65642E0000005254433A20696E69E7
:108C30007469616C697A65642E00000090F9040023
:108C4000002809DB00F01F0201219140400980004B
:108C500000F1E020C0F8001270470A46022100F03F
:108C60007BB84FF4827100F0F1B800680121016017
:108C7000704700680121416070472DE9F05F0746A9
:108C80000C464FF4A07000EB84001FFA80FA38689D
:108C90004FF48036A6409B4622F07F45C0F84863DB
:108CA0003868C0F808633868D0F8048500EB84029F
:108CB000D2F84095C2F840855146386801F03EFD33
:108CC000A9EB080020F07F40012806D1102002F017
:108CD00019F85146386801F031FD3868D0F804853C
:108CE000C0F84463A5EB080121F07F4138680129F1
:108CF00000EB840010D0C0F840553868D0F8041557
:108D00006FF07F4C6A1A521E22F07F42ACEB0B03CD
:108D1000934217D362B118E06D1CC0F84055102083
:108D200001F0F0FF3868D0F8040540450AD10CE0A6
:108D300000EB84006D1CC0F840553868D0F804057D
:108D4000884202D00D20BDE8F09F0122314638460E
:108D500000F002F80020F6E70368C3F84413002A85
:108D600002D00068C0F80413704700002DE9F84FE6
:108D70000E463449804601EB5001C007097801D006
:108D80000F0901E001F00F074FF0000942460120F2
:108D90004946FDF75AFBDFF8B0A004460D46052F03
:108DA0004ED2DFE807F003161B282C00002E47D018
:108DB0000121404603F090FA8DF800906846FEF7D6
:108DC00063FA5046D0E904120C431543CAE904453E
:108DD00032E00EB1022114E0002112E04EB1032175
:108DE000404603F079FA4046BDE8F84F012103F010
:108DF00045BE012105E0002E22D1042101E02EB163
:108E000003214046BDE8F84F03F066BA0021404612
:108E100003F062FA0021404603F030FE8DF8009026
:108E20006846FEF731FA5046E243D0E904341A406E
:108E300024EA0501CAE904219DF80000FEF748FA7A
:108E4000BDE8F88FF8350020B82B002010B5006879
:108E500042581AB101F072FC012010BD002010BD73
:108E6000826883881A4003689A5C0A708168491C8A
:108E700081607047C26883881A4003689954C1684A
:108E8000491CC16070470AB100F070BC00F058BCCA
:108E900070B50D460446B0F81414D0F81004012241
:108EA000FEF7A3FB00B1057004F13C0204F58261FA
:108EB00004F1540072DF70BD10B50446C0B2FEF775
:108EC000B9F9204610BD00000C484A8843889A42F0
:108ED00013D10A88A2F52063773B0ED18988C91E79
:108EE0008AB28280064807491346401AC008032107
:108EF00001EB004004A101F070BA7047E02A0020A5
:108F00007CD7020004D7020044617461206C656E56
:108F10002069732073657420746F20307825582879
:108F20002564290010B50949094800F0B7FC08B1CB
:108F3000FEF750F8F721064800F0A4FC002803D003
:108F4000BDE81040FEF746B810BD0000C98E020013
:108F5000A42F002010B50B48FFF7FFFD094A083A7F
:108F6000D2E90434C018D2E9063244F10001C31A30
:108F700071EB020204D24FF08072801841F10001BF
:108F800010BD0000F82B002010B5C0B2FFF74CFB5D
:108F90000446007801F074FF01466078012801D092
:108FA000012000E0002090EA010F08D00449D1E937
:108FB0000401084303D1BDE8104003F09BBA10BD83
:108FC000B82B00200146034802888A4200D00020C6
:108FD00070470000503400202DE9FC5F0E008346EE
:108FE000DDE90C47C6F1000098469246814600D460
:108FF0000846012503E000BF90FBFAF06D1C5045C8
:10900000FADAA84500D9454624B1002E01DB7807DD
:1090100000D5641EB80702D5B8F1000F0AD0F807D2
:1090200008D13CB1A54205D220215846641EFFF765
:10903000DFFAF6E7002E02DA4E462D2102E078072D
:1090400003D52B215846FFF7D3FA07F00300022877
:109050000BD1B8F1000F08D13CB1A54205D23021A7
:109060005846641EFFF7C4FAF6E7CDE900474346C9
:1090700052463146584603F055FCBDE8FC9F0000BF
:1090800070B50D46044600684FF4887101F0EEFD9E
:109090004FF49071206801F0E9FD4FF4927120685F
:1090A00001F0E4FD4FF4A271206801F0DFFD4FF400
:1090B000AC71206801F0DAFD20681249C0F8041391
:1090C0002068690740F30730090E002804DB00F12F
:1090D000E02080F8001405E000F00F0000F1E0202F
:1090E00080F8141D206840F30730002809DB00F0E9
:1090F0001F02012191404009800000F1E020C0F8EA
:10910000001170BD10034200024600201268530790
:1091100013D502F00300012802D002280CD105E08B
:10912000C2F383100B68801C184404E00223086813
:1091300003EB9252104408600120704701218140E6
:1091400003484068014201D0012070470020704769
:10915000AC2B0020014601208840FEF75BB9F0B53A
:109160008488A518944200D82246A41AC288D6182A
:109170009A4200D81346D21A4B880788BB420CD3B8
:109180004088834209D88888A04206D3A84204D8E0
:10919000C888904201D3B04201D90020F0BD01201F
:1091A000F0BD01218140C80300D0012070470000BC
:1091B0000A4810B5807860B1002401E0022C06D086
:1091C0002046FEF787FF641C042CF7D310BD032450
:1091D000F6E7BDE81040FEF79DBF00000C2B002015
:1091E00003480179C90702D00078FFF7CFB870476C
:1091F0000C2B0020F72101801721418000210171F3
:109200004171FB2181711B21C171704770470000C2
:109210002DE9FF410026244800F0B5FA2248001F3E
:10922000074600F0B0FA214C2149A06800900D6873
:1092300000E000986946284004EB80000C30FFF7FE
:1092400063FF0028F5D101AA009901EA050304EBA8
:109250008303491CDB6842F82030401C009102283F
:10926000F2D3019800F0030001280BD0022810D19E
:109270000198032101EB90500099BDF80A6001EBC1
:10928000900005E00198BDF80A60C0F3831008441F
:109290000090384600F074FA08B10098A06004B05D
:1092A0003046BDE8F0810000583C002040380020E6
:1092B000542C0020ACB0182272496846FDF7E8F83B
:1092C0007148069071494FF48070CDE9070109900B
:1092D00007236F4A06A96846FDF75AFF08B1FDF754
:1092E00079FE4FF40041002001F0D8F808B1FDF7F5
:1092F00071FE00F03FFFFDF7B7FE08B1FDF76AFE13
:1093000064490320FEF7F8FF08B1FDF763FE6946E4
:109310000020FEF723FF08B1FDF75CFE01F0C8F95D
:1093200008B1FDF757FE01F09DFB08B1FDF752FEB5
:10933000002469460120009401F034FA08B1FDF7D9
:1093400049FE684601F0C6FA08B1FDF743FE9DF8F4
:10935000080051A120F00F00401C20F0F000103058
:109360008DF808000B2202A87CDF08B1FDF732FE61
:1093700000945020ADF80000A0200194ADF8020048
:10938000ADF804404FF4C870ADF8060068467ADFC7
:1093900008B1FDF71FFEFFF7C5FD4248019001A986
:1093A000414800F050FB08B1FDF714FE3F48009023
:1093B00069463F48FEF792FD08B1FDF70BFEAC2170
:1093C0006846FDF77EF802208DF800008DF8024017
:1093D00005208DF803000120ADF84C0034498DF8CC
:1093E0007C004020091F2290149144F25060239089
:1093F000304829902C4869460C30FEF72CF908B10A
:10940000FDF7E8FD284801210C30FEF721F91C2169
:109410006846FDF756F84FF42030CDE900404FF490
:109420007020029024480590032524488DF80C50A4
:109430000690ADF80E408DF810406846FEF7F2FA3F
:1094400008B1FDF7C7FD02F0C3FD02F087FD02F091
:10945000B1FD1BA0FDF728FC1E481F49401AC0089B
:1094600005EB00401DA100F0ADFF0F4803210C30BB
:10947000FEF7BFF908B1FDF7ADFD00F089FE01F080
:109480002BF9FAE7B8CB0200A42D0020A42E00206F
:1094900061C50200518202004E6F726469635F55BC
:1094A000415254001DA70200B82F002071B80200DD
:1094B000EC2A002021B9020045B902007F89020090
:1094C0000D0A5541525420737461727465642E0DF7
:1094D0000A0000007CD7020004D7020044656275D0
:1094E00067206C6F6767696E6720666F72205541F1
:1094F0005254206F766572205254542073746172F6
:109500007465642E0000000070B5144682880E4613
:1095100005462088111D0144921C994201D8FE2A5B
:1095200001D90C2070BD521C32542088FF21401CF0
:1095300080B2208031542088401C80B22080811964
:10954000288803F0EAF92188084480B22080AA889C
:1095500042B1A96841B13044FCF79AFF2088A9883C
:1095600008442080002070BD072070BD2DE9F04721
:10957000C5881E1DB6FBF5F78946B6FBF5F1044616
:1095800005FB176C407916686843DDF820A0F718D2
:10959000001F874200D9C61A166001E02468491EE0
:1095A0000029FBD1A5EB0C078846B74216D818E076
:1095B00004EB0C00001D09EB0803BAF1000F3A465A
:1095C00002D00146184600E01946FCF761FF246806
:1095D000F61B4FF0000CB844B54201D9374600E005
:1095E0002F46002EE4D1BDE8F087000030B50246DA
:1095F00051B100F067FF0021074C08E034F821303A
:109600001568AB4202D11160002030BD491C814277
:10961000F4D3052030BD000000000000F8B50F466F
:10962000017814460546012901D1687830B12088B7
:10963000821C9A4232D8012902D006E00720F8BDE8
:1096400069780144891C994228D8181A801E86B26C
:10965000ADF800602188B81C084469467DDF002809
:10966000EDD12978022904D06878BDF80020904215
:1096700005D3BDF80000B04201D809200AE0082057
:10968000012905D16978B14202D8ADF8001001E096
:10969000ADF80060BDF80010FE2901D90C20F8BD1E
:1096A0002288491CB9542188491C89B221807854E8
:1096B0002088401C2080BDF8001008442080002035
:1096C000F8BD10B531B1B2FBF3F403FB14241CB1A7
:1096D000092010BD0E2010BD016000214160816095
:1096E0008281C381084610BD70B50C460546FCF763
:1096F00093FD002802D021882868084470BD10B569
:109700000A8849888A4203D1FCF7C8FD012010BDB0
:10971000002010BD70B50C460546FCF7A2FD0028E0
:1097200002D061882868084470BD10B50A8849884D
:109730008A4203D1FCF78CFD012010BD002010BD32
:1097400001F01F0301229A40D243490900EB810036
:10975000114600F021B84A0950F8220001F01F021A
:1097600001219140084000D00120704701F01F0303
:1097700001229A40490900EB8100114600F01CB813
:10978000002100F00FB8012100F016B808B56A46B4
:10979000FCF7D9FD009808BD08B56A46FCF7B9FD8D
:1097A000009808BD08B56A46FCF7B3FD08BD08B5CA
:1097B0006A46FCF795FD08BD08B56A46FCF79CFDB6
:1097C000009808BD08B56A46FCF7CAFD009808BDB8
:1097D00038B5044600258DF800506846FDF754FD65
:1097E00021686268086890420ED9401E08600178BE
:1097F000238AE26801FB0325227A2168101AC0B28D
:109800000A79824200D208719DF80000FDF760FDE0
:10981000284638BD38B5054600208DF800000C46B6
:109820006846FDF731FDE868298A201AB0FBF1F19E
:109830002A681068431C136001709DF80000FDF752
:1098400047FD38BD10B530B1017A42680368891A06
:10985000C9B21A6006E00E2010BD03681A68541CD5
:109860001C601170491EC9B2F7D200680021017155
:10987000084610BDC20800F007030120895C98402B
:109880000840704728B1A1F11702E12A03D307204D
:1098900070470E20704701800020704710B560B1FE
:1098A0000161F72120F8021B20F8021BFB2100F8C0
:1098B000021BFFF79FFC002010BD0E2010BD000012
:1098C000F0B5858893B00C46002D49D1018800265B
:1098D000474F24294BD006DC102909D011291CD070
:1098E000232968D15FE03A291BD0552963D139E09B
:1098F00023792373C07BA11D2A46012802D00228A8
:1099000004D101E0208800E060880880C979D8B2DD
:10991000884250D9014610464BE0A01DFFF76AFC73
:1099200049E02246408934F8061F814200D80846A3
:109930006080172800D217206080106970B16079AC
:1099400060B1D7E90001CDE90301ADF80E506088A0
:10995000ADF81000136903A9104698476671267187
:1099600013B0F0BD0146204602F030F823E0011D9F
:109970002C2206A8FCF78CFDBDF81800BDF81C20B1
:1099800004EBC0014A732269AAB1D7E90423CDE9E7
:109990000423ADF81200487B8DF81400226920469C
:1099A00004A9904707E0017A207B884200D2014653
:1099B0002846FFF70BF8A07A0028D1D0E188284686
:1099C000A5DF012580B11128CAD001F029F902468E
:1099D0000848094913B0401AC00805EB0040BDE82B
:1099E000F04006A100F0F2BCA672E572B8E70000F4
:1099F00010CC020004D7020004D7020073645F6237
:109A00006C655F67617474635F65786368616E67D6
:109A1000655F6D74755F7265717565737428292053
:109A200072657475726E65642025732E00000000E7
:109A300020B10278DE2A03D0082070470E2070473C
:109A400041800020704760B159B10278DE2A0AD007
:109A500009684160DE2101704FF6FF7141800020EE
:109A600070470E207047082070477FB505460029D3
:109A70004DD0002D4BD008780C46DE2847D1A88861
:109A80006188884202D1204602F0E6FF288801283A
:109A900025D002283BD011283AD0512837D135F8AB
:109AA000040F6188884232D1A978A81C02292ED1DE
:109AB000017A042903D0062901D0052927D10021E4
:109AC000009102228DF8002001914FF4C0720291A2
:109AD0000391ADF80420007A05280FD010E0297A10
:109AE0002046012913D1A988428891420FD1012132
:109AF000017204B0BDE8704002F0AEBFADF80410D2
:109B000028886946B0DF002801D0616888477FBD9A
:109B1000A88861888842FAD14FF6FF7060807FBDC7
:109B200000F180400068002800D00120704708B58F
:109B300000F18040002101600068009008BD000035
:109B400070B50D4C0125207808B185260EE0002067
:109B5000A06060602061E060084801F0ABF8064654
:109B600000F0CCFF08B901F08FF8257001F084F8FF
:109B700000B1A570304670BDFC340020858802001D
:109B800038B500258DF800506846FDF77DFB084C80
:109B9000E068401EE060E06828B901F06DF810B997
:109BA00001F098F8A5709DF80000FDF791FB38BD15
:109BB000FC3400200448017809B185207047012158
:109BC0000170002070470000482C0020F0B50546C9
:109BD0000478154889B0164640F82420124A0869CE
:109BE000121DA2F1080742F82400487F38552022B0
:109BF0006846FCF74DFC04942878385C48B10EB1F7
:109C00000A4A00E000226946281D01F015FD09B04E
:109C1000F0BD0EB1064A00E00022694605F10C00D5
:109C200001F0BEFBF3E70000942B0020D9C702002F
:109C30007DC6020030B40378054CE35C1BB130BC38
:109C4000001D01F02FBD30BC0C3001F013BC000032
:109C5000902B002030B40378054CE35C1BB130BC82
:109C6000001D01F0A1BD30BC0C3001F079BC00003A
:109C7000902B00200FB408B50399002904D004AA42
:109C800000926A4600F00FF801B05DF814FB10B5C1
:109C900082680446002A05D0D4E904032168984765
:109CA0000020A06010BD2DE9FC4791460C008046C5
:109CB00076D014F8011B39B125290ED04046FEF7A5
:109CC00097FC20780028F4D198F80C00002867D081
:109CD0004046BDE8FC47FFF7DABF002001222178AB
:109CE0002B291BD02D2902D0302908D102E040F0C9
:109CF000010001E040F00200641C002AEFD10025C1
:109D00002A290ED02178A1F130020A2A11D205EBBE
:109D1000850201EB4205641C303DF1E740F0040090
:109D2000EAE7D9F800100B1DC9F800300968641C77
:109D30000D44217800232E290BD114F8011FA1F125
:109D400030020A2A05D203EB830201EB4203303BC7
:109D5000F3E76C290DD068290BD0692921D00BDCE1
:109D6000252918D0582931D063290ED0642915D15E
:109D700017E014F8011FECE7702969D0732932D07D
:109D800075291BD0782909D120E0D9F80000011DE0
:109D9000C9F8001001784046FEF72AFC641C90E7E1
:109DA0006CE0D9F800100A1DC9F800200968CDE957
:109DB00000500A224046FFF70FF9EFE7D9F80010EC
:109DC0000A1DC9F8002009680A2206E0D9F8001027
:109DD0000A1DC9F8002009681022CDE9005040464C
:109DE00002F0A0FDDAE7D9F8001000270A1DC9F833
:109DF00000200E68C00705D112E04046761C7F1C8B
:109E0000FEF7F6FB31780029F7D104E02021404627
:109E10006D1EFEF7EDFBBD42C0D9002DF6D1BDE7AA
:109E20004EB13046FCF758FB074604E0202140467F
:109E30006D1EFEF7DDFBBD4206D9002DF6D103E015
:109E40004046761CFEF7D4FB31780029F8D1A5E70F
:109E5000D9F80000011DC9F80010056830214046FE
:109E6000FEF7C6FB78214046FEF7C2FB0820002122
:109E7000CDE90001034610222946B0E7BDE8FC8782
:109E800070B541EA4201DDE904564FF0A04441EAD1
:109E9000830141EA052104EB800041EA0641C0F854
:109EA000001770BD70B541EA4201DDE904564FF07C
:109EB000A04441EA830141EA052104EB800041EA24
:109EC0000641C0F8001770BD70B541EA4201DDE9F6
:109ED00004564FF0A04441EA830141EA052104EB16
:109EE000800041EA0641C0F8001770BD70B541EA34
:109EF0004201DDE904564FF0A04441EA830141EA02
:109F0000052104EB800041EA0641C0F8001770BD4E
:109F10001CB500220B46009211460192FFF7D4FFB8
:109F20001CBD1CB500220B46009211460192FFF7A2
:109F3000DDFF1CBD1CB5002100910B4601220191E3
:109F40001146FFF7C1FF1CBD1CB5002100910B4657
:109F5000012201911146FFF7C9FF1CBD4FF0A0423D
:109F600002EB8000D0F8002722F44032C0F800272E
:109F7000D0F8002742EA0141C0F8001770470000FE
:109F800038B5094B44181B6800936B4608E000BFC6
:109F900053F82010D1F8205520C2C1F82055401C9C
:109FA0008442F5D838BD000038CC020042094FF099
:109FB000000100D1491E00F01F00012282400A4228
:109FC00001D0012070470020704701224FF0A043CC
:109FD000824011B1C3F808257047C3F80C257047BB
:109FE000034908B50844002101600068009008BDDD
:109FF0000060004002494058012800D0002070470E
:10A000000060004030B5154A01460020D2F81044E7
:10A0100023460AE0DB681D79854205D1401C0A28E9
:10A02000F6DB4FF0FF3030BD1B68002BF2D1431C34
:10A03000F9D0CB681871D2F8103443B1DB68CC6822
:10A040001B682360D2F81024D268116030BDC2F8BA
:10A050001014C96800220A6030BD0000403800209A
:10A060007047FCF7C7BB704708B5034A009240230E
:10A07000024A00F005F808BD2DC10200A8360020F4
:10A08000F0B595B01C4615460E4608461A9F00F0DE
:10A09000E9FA182109A8FCF714FA0E97CDE909543A
:10A0A0000023082203A9304600F0F1FA0598069033
:10A0B000BDF81000ADF81C00BDF81200ADF81E0090
:10A0C00000208DF821000399082501F003000128E4
:10A0D00002D0022816D02FE0C1F3C200C1F38317CB
:10A0E0008C0A8DF82000BA002B460FA9304600F0EC
:10A0F000CEFA09A8009006AB3A460FA9204600F018
:10A100000DFA19E0C1F3C2008C0D8DF82000082C67
:10A1100001D2274600E008272B463A460FA93046D1
:10A1200000F0B5FA3D44E41B09AB06AA39460FA876
:10A1300000F05CF9002CEAD1304600F099FA15B035
:10A14000F0BD00000A4A012902EBC00007D0022935
:10A1500007D0032907D0042907D000207047022028
:10A1600070470420704700797047407970470000BD
:10A1700004D7020010B5FFF774FF04210348FFF76E
:10A1800041FF02490120C968487110BDF4D60200A0
:10A190002DE9F04F8DB0FEF73BFA18B100200DB05D
:10A1A000BDE8F08F7D4C4FF0000BC4F818B4BFF33E
:10A1B0004F8F7B49A06802900D68D846284004EB79
:10A1C00080000BE0D4F8180470B9616802988142ED
:10A1D00001D8A160E2E7284004EB80000C3002A91E
:10A1E000FEF792FF0028EDD1002009AA029901EAAA
:10A1F000050304EB8303491CDB6842F82030401C54
:10A2000002910228F2D3099800F00301022902D03A
:10A2100001294DD0A8E0810D50228946B2EB905F14
:10A2200000D850210E4666F39F50099008315D48D2
:10A2300000F0CFF9070077D000F014FA4346082267
:10A2400009A9384600F02BFA029908F1080A2940BA
:10A25000681A8000001D864223D9504D0C3530B15C
:10A26000C2B204EB8101301A90460C3104E0294659
:10A27000F2B2002590462846C6B25346384600F052
:10A280000EFA0AEB08032DB1324629464FEA0700C1
:10A2900000F005FA029909F1030001EB9000029029
:10A2A00039E004EB81015346324638460C31EFE782
:10A2B000C0F38311062900D3062161F389100990A8
:10A2C000C0F38310801C8100364800F082F907003B
:10A2D0004AD000F0C7F94346082209A9384600F0E1
:10A2E000DEF908F1080800260FE00298434600EA6C
:10A2F0000501401C04EB81010290042238460C3118
:10A3000000F0CDF908F10408761C0998C0F3831019
:10A31000B042EAD847B1D4F81054D4F8180478B150
:10A32000384600F0A5F934E01EE0E86840790128DD
:10A3300004D12A682846394612689047E8680568BB
:10A34000002DF2D1384600F093F98DF800B0684640
:10A35000FCF79AFFD4F8180408B90298A0609DF899
:10A360000000FCF7B5FF14E0D4F8104405E02168C4
:10A37000204689688847E0680468002CF7D10A48BD
:10A380000A49401AC008022101EB004008A100F070
:10A3900019F8FEF73DF980F0010000E74038002091
:10A3A000542C00209CD702007CD7020004D7020066
:10A3B0004261636B656E647320666C757368656477
:10A3C0000000000000231A4601F09EBF08B50123DB
:10A3D00000926A4601F098FF08BD1CB5CDE9002344
:10A3E00002236A4601F090FF1CBD00002DE9F047F2
:10A3F0000E4680461C469246082940D894F80C9098
:10A40000002020731946104601F028FC0025B542B3
:10A4100006D218F805201BA12046FFF72BFC03E00D
:10A420001AA12046FFF726FC6D1C082DEFD318A1BA
:10A430002046FFF71FFC0025B54212D218F8057020
:10A440007E2F08D8FCF720F80068C05D10F03E0FA2
:10A4500001D03A4600E02E220EA12046FFF70AFC6A
:10A4600003E00DA12046FFF705FC6D1C082DE3D38A
:10A4700001222146504601F0D3FB84F80C90BDE840
:10A48000F0870000202530327800000020202000D6
:10A490007C0000002563000020000000064910B584
:10A4A00000200870054800F0E1F8002803D10448B6
:10A4B00000F036F9002010BD403800209CD7020083
:10A4C00018CE020002480349401AC0087047000035
:10A4D0009CD7020004D7020013B56846FFF786F840
:10A4E00008B100201CBD0248009950F831001CBD85
:10A4F00004D7020070B508480125D0F81044057053
:10A5000007E0E06845712168204649688847E068AF
:10A510000468002CF5D170BD403800202DE9FF47BC
:10A5200081460C9D00200C462F7B287398461646CA
:10A530002946184601F092FB072E42D2DFE806F0CA
:10A5400004090F161F2A360049462846FFF792FBDA
:10A5500037E0494628462268FFF78CFB31E0D4E912
:10A56000002349462846FFF785FB2AE0A0680090B3
:10A57000D4E9002349462846FFF77CFB21E0D4E9D3
:10A580000201CDE90001D4E9002349462846FFF73E
:10A5900071FB16E004F1080007C88DE80700D4E954
:10A5A000002349462846FFF765FB0AE004F108004E
:10A5B0000FC88DE80F00D4E9002349462846FFF76D
:10A5C00059FB00222946404601F02AFB2F73BDE8C3
:10A5D000FF872DE9F041058A80462D1F4819C01CD0
:10A5E000B0FBF5F0C6B24046FFF7F2F8041E19D0F2
:10A5F0000020207101206071E58000272546761E2D
:10A60000C4F800800BE04046FFF7E2F860B16179E2
:10A61000491C6171286005467F1CC0F80080B74264
:10A62000F1D32046BDE8F081204600F002F800207A
:10A63000F8E72DE9F041457901466B1E002201E063
:10A640000968521C9A42FBD30F680146002605E0B8
:10A6500038460C68FFF7DEF82146761CAE42F7D389
:10A66000BDE8F0810121001DFFF790B8FFF7EAB8BF
:10A6700010B504460121001DFFF7A4F810F0FF0FEC
:10A6800004D12046BDE81040FFF7D3BF10BD1CB574
:10A6900001920122009201AAFEF768FF1CBD1CB5C1
:10A6A00001920022009201AAFEF760FF1CBD00008B
:10A6B000064910B500204870091D0860BFF35F8F80
:10A6C0000349044800F03EFA002010BD3C2C002055
:10A6D000B0CC02009C36002008B500208DF80000A8
:10A6E0006846FCF7D1FDF1EE100A20F09F00E1EE84
:10A6F000100ABFF35F8F08494020C1F880029DF81F
:10A700000000FCF7E5FD00F0F9F908B141DF08BDF4
:10A7100020BF40BF20BF08BD04E000E0FCF75ABCEA
:10A72000826800219160826811618268516182684B
:10A73000D1608268516080680160704708B500226E
:10A7400042504058009008BD024A1060101D016040
:10A75000704700002C760040030103481844C0F8FD
:10A760001425C0F810157047007000400249405889
:10A77000002800D00120704700700040034908B550
:10A780000844002202600068009008BD007000408C
:10A7900020B1034909680160002070470E2070470E
:10A7A0009CCE02002DE9FE4307460E460846FFF701
:10A7B000EFFF00287CD100240094019406208DF83E
:10A7C00000704FF00108ADF8040002948DF802808B
:10A7D00069462020326869DF3649374A891AC90834
:10A7E000012202EB014530B100F01AFA0246284678
:10A7F0003249FFF7EBFD00948DF801808DF802409F
:10A80000019402948DF8034069464020326869DF64
:10A8100030B100F005FA024628462949FFF7D6FD77
:10A8200000948DF80070F720ADF8020001940294B6
:10A8300069462320326869DF30B100F0F1F9024641
:10A8400028462049FFF7C2FD0094019402948DF838
:10A85000008069460120326869DF30B100F0E0F91C
:10A86000024628461849FFF7B1FD4FF4B06000904A
:10A87000019402946946A120326869DF30B100F08A
:10A88000CFF9024628461149FFF7A0FD0094019434
:10A8900002948DF800406946A020326869DF30B12B
:10A8A00000F0BEF9024628460949FFF78FFD002057
:10A8B000BDE8FE838CD7020004D702003CD502001D
:10A8C00084D50200D0D502009CD40200E8D4020056
:10A8D00048D402002DE9F0410546076860DF804654
:10A8E00019491A482A68081AC608BA4219D9022012
:10A8F00000EB064416A12046FFF764FD20463A46C9
:10A900001FA12B68FFF769FD4FF08050D0F80C01B4
:10A910002968800200F10050421A204625A1FFF765
:10A9200055FDB8F100004FF001040AD000F078F9AD
:10A93000024604EB06402AA1FFF748FD4046BDE869
:10A94000F0812F480470F9E78CD7020004D7020089
:10A95000496E73756666696369656E742052414D10
:10A9600020616C6C6F636174656420666F72207423
:10A97000686520536F66744465766963652E0000D0
:10A980004368616E6765207468652052414D20738D
:10A9900074617274206C6F636174696F6E2066728B
:10A9A0006F6D203078257820746F20307825782ED0
:10A9B000000000004D6178696D756D2052414D2099
:10A9C00073697A6520666F72206170706C6963616B
:10A9D00074696F6E20697320307825782E0000002E
:10A9E00073645F626C655F656E61626C65282920C7
:10A9F00072657475726E65642025732E0000000008
:10AA0000AB2C002030B51548ADF5017D007800284D
:10AA100021D04FF4FA7500BFADF8005280A9684606
:10AA200061DF38B1052816D00DF5017DBDE8304055
:10AA3000FCF7D0BA6C460A497DA800F083F806E01E
:10AA4000D0E90021204690477DA800F092F87F9839
:10AA50000028E1D0F4E70DF5017D30BDAB2C0020DE
:10AA6000A0CE02007CB5194C207808B108207CBD2E
:10AA70000120A070002001F023FB112819D0002034
:10AA800001F036FB12480026006801908DF8006046
:10AA90006846FCF7F9FB0F4901A810DF05000AD052
:10AAA000002020709DF80000FCF712FC2DB1284614
:10AAB0007CBD00207CBD0120F3E7A670667001F02C
:10AAC000D9FB012001F014FBF3E70000A82C0020C3
:10AAD00034CE0200516F02000EB50749684600F0FF
:10AAE00031F805E0D0E900108847684600F041F8E9
:10AAF00002980028F6D10EBD50CE02000148007821
:10AB000070470000A82C00201FB568464BDF30B10D
:10AB1000052814D004B0BDE81040FCF75BBA084922
:10AB200001A800F00FF806E0D0E900210098904756
:10AB300001A800F01EF803980028E6D0F4E71FBD36
:10AB4000BCCE0200016009684160AFF3008010B51F
:10AB5000D0E900215368994201D1002104E0D1E9F4
:10AB60000034A34202D01946816010BD0831416013
:10AB7000F0E7816800290BD0026892680A4482607D
:10AB800041684B689A4203D108314160FFF7DFBF4B
:10AB9000704770B50D460646446804E0B268294621
:10ABA000904718B1246820680028F7D120682860F1
:10ABB000256070BD406800687047416808680028DB
:10ABC00001D002680A60704702460020526806E021
:10ABD0008B4203D108681060012070471A46136841
:10ABE000002BF5D1704700000C4A10B502F59473A4
:10ABF0000EE0991AC91001EBD171491002EBC101A5
:10AC00000C68844201D90B4602E005D201F108022A
:10AC10009A42EED3002010BD486810BDD0CC02008F
:10AC200000B5FFF7E1FF002800D1014800BD00009A
:10AC3000BCCC020008B5002242504058009008BD2C
:10AC40004058002800D00120704708B5002242502B
:10AC50004058009008BDD0F80403084000D00120FF
:10AC600070474058002800D00120704708B50022E6
:10AC700042504058009008BD02480068002800D0AB
:10AC8000012070470004014008480068012110F0CD
:10AC9000010F06D14FF0E020C02280F8002484305C
:10ACA000C1670349012008607047000000E100E02F
:10ACB000180500400649024600200B790BB185209B
:10ACC00070470A6001220A7100224A717047000031
:10ACD0009C2B0020022010B54107C1F808034FF457
:10ACE0008270FEF724FF05490120086004480168CE
:10ACF000C1F300410029FAD110BD00000C00004052
:10AD000018040040002802D001498001084770471C
:10AD100081CC02002DE9F0410E46054600F006FF09
:10AD20000028284619D0FDF7C9FC083800F070FF4C
:10AD3000032802D001280ED007E04FF0A040D0F841
:10AD40001005E84010F0010F05D003212846BDE8AA
:10AD5000F041FFF703B90221F8E700F0F3FE002805
:10AD600022D02846FDF7AAFC04464FF4807000EB81
:10AD700084000E4F81B207EB8400D0F8102542F01A
:10AD80000102C0F810250846FFF72AF9002E0BD063
:10AD90002846FDF793FC064951F82000002803D00F
:10ADA0000120A040C7F80403BDE8F0810060004026
:10ADB000103500202DE9FC41DFF8B880044608EB8F
:10ADC0000400002790F930001346C0170E46401CBF
:10ADD00001D008274AE0B0781946C0F34002204667
:10ADE000FDF748FC0546401C3FD0B078410717D41A
:10ADF000C0070AD04FF0A04000EB8400D0F8001745
:10AE000021F00201C0F8001707E000217378204606
:10AE100000910A460191FFF745F8204600F078FEC0
:10AE2000B078800718D51448317800EB8500D0F849
:10AE30001025124B1A40C0F810254FF4F8524FF469
:10AE4000403302EA042203EA01410A43D0F8101514
:10AE50000A43C0F8102509E008EB0500327810F825
:10AE6000481F41EA8211017000E004273846BDE81E
:10AE7000FC8100001035002000600040FFE0FCFF76
:10AE80004FF0A041D1F81015C14011F0010000D0E1
:10AE90000120704770B5194D95F8580008B1082089
:10AEA00070BD0024661E2046FFF780F810B12819F7
:10AEB00080F83060641CE4B2202CF4D300242046D7
:10AEC000FDF7CAFB641CE4B20C2CF8D300200D493A
:10AED00068650B4CC02081F8000401264020891FC2
:10AEE000C1F800014FF4BE70FFF77AF8A004C4F86F
:10AEF000040385F85860002070BD00001035002064
:10AF00000060004006E000E0034890F85800002888
:10AF100000D0012070470000103500200121B1EB66
:10AF2000507F01D101207047002070472DE9F84F74
:10AF30000427174E00248246A1464FF0010800BFA7
:10AF40008DF800906846FCF79FF908FA04F5354241
:10AF500003D02046FEF7F2F860B19DF80000FCF740
:10AF6000B7F927B104F10104AE43E4B2E8D13846A1
:10AF7000BDE8F88F074908FA04F000274A68104333
:10AF800048608AF800409DF80000FCF7A1F9EEE760
:10AF9000FFFF0100AC2B00202DE9F04114460D000D
:10AFA000074612D08CB10026FEF7FBF878B1384680
:10AFB000FEF7C4F868B1084800EBC700C0F81055A8
:10AFC000C0F814453046BDE8F0810E20FBE70726A7
:10AFD000F8E70826F6E7000000F0014070B50546E6
:10AFE0000024FEF7B7F868B12846FEF7DAF818B182
:10AFF0002846FEF7A3F838B104490120A8400860AC
:10B00000204670BD0724FBE70824F9E704F501405A
:10B0100038B50D4600F06EFE040014D000208DF807
:10B0200000006846FCF730F9207928B19DF800004F
:10B03000FCF74EF9112038BD0120256020719DF8E4
:10B040000000FCF745F9002038BD00002DE9F04173
:10B05000254C064612200D46C4F808032348017CFF
:10B06000022918D0027C01464FF4807891F82E1006
:10B07000012A12D00222C4F8042301270774466073
:10B0800005810022C26021B3458390F82D1030461F
:10B09000FFF75AFB25E0122002E0C2682AB1022025
:10B0A000C4F804031120BDE8F081C660058361B9CE
:10B0B00047463846FFF75AFB0028FAD03846FFF7D4
:10B0C0005DFB29463046FFF73FFB0220C4F804032E
:10B0D00007E029463046FFF737FB4046FFF74EFBB7
:10B0E00027600020DFE7000000700040BC35002032
:10B0F00070B50C4626490A7C0AB1112070BD227930
:10B10000244D0AB1012A01D100222A6001EB40023C
:10B11000137F1BB911F82D3F5B1C0B70E179117780
:10B12000217A517721786278302301F0030103EA14
:10B1300002121143A2784FF4E06303EA02221143A2
:10B14000E2784FF4805303EA0232114322794FF43C
:10B15000E02303EA0242114362794FF4801303EAC9
:10B1600002521143A2791B0103EA02620A4B114306
:10B1700003EB0012C2F81815227AE179FFF7ECFA16
:10B18000207908B1012801D101202860002070BD7C
:10B19000BC35002000750040007000402DE9F041F2
:10B1A0001F4C054694F82C0010B10820BDE8F08132
:10B1B00044F8101B1B4928780860091D687808604E
:10B1C000E878A077012727770020207060776060FB
:10B1D000154EE0776FF00040C6F808034FF4827018
:10B1E000FFF7CCFAB015FFF7C9FA4FF48A70FFF7F2
:10B1F000C5FAA8780D49400181F800048020C91FD4
:10B20000C1F800010220C6F80403A07F10B101209C
:10B21000C6F804030348F03807600020C6E70000C2
:10B22000BC350020F07500400070004007E000E0F1
:10B23000044890F82E0008B1002000E004200249E4
:10B2400008447047BC350020007000402DE9F041F3
:10B2500006460D464FF4803400681746AC404BB1AB
:10B260004FF4A07101EB8501FFF7E4FC3068C0F8F2
:10B27000044301E0C0F80843306800EB8500C0F8E3
:10B280004075BDE8F0810000016801220A60007984
:10B29000034A00EB400002EB80000221017270477C
:10B2A000EC350020F0B40468049E40F20115D4F897
:10B2B00000728D40AF43C4F800720468D4F80052A5
:10B2C0001D43C4F800523346F0BCFFF7BFBF000077
:10B2D0002DE9F04104460E4600792C4900EB400070
:10B2E00001EB8007387A10B10820BDE8F0813A60A0
:10B2F000706800254FF4A078786006E008EB8501BF
:10B300002068FFF797FC6D1CEDB26079A842F5D874
:10B310002068F17840F3073000284FEA411104DB40
:10B3200000F1E02080F8001405E000F00F0000F1CB
:10B33000E02080F8141D2068012140F30730002828
:10B3400009DB00F01F0201FA02F24009800000F15F
:10B35000E020C0F8002120687278D0F8043562F34C
:10B360000103C0F804352068B278D0F8083562F3DC
:10B370000103C0F8083520683278D0F8103562F340
:10B380000303C0F8103539720020AEE7EC35002019
:10B390000149024801F08AB96C35002000200040C4
:10B3A0002DE9F0410546007916460F4600EB4001B5
:10B3B0002D4A01EBC00102EB810494F82A1011B16F
:10B3C0000820BDE8F081294951F820102868FFF7CE
:10B3D0001FFE08B11120F4E739462846FBF792FF1B
:10B3E00066603869206030004FF001062FD03F7F43
:10B3F0004FF48E712868FFF728FC4FF4A27128687B
:10B40000FFF723FC28681A49C0F8041328684FEA9C
:10B41000471140F30730002804DB00F1E02080F8FA
:10B42000001405E000F00F0000F1E02080F8141D8A
:10B43000286840F30730002809DB00F01F0106FAF6
:10B4400001F14009800000F1E020C0F800112868F7
:10B450000421C0F800150020A061E06184F82900F3
:10B4600044F8140FA675ACE76C3500203CCC020004
:10B47000800002002DE9F05F054600794FF4017667
:10B4800000EB400303EBC000344B03EB80040020CF
:10B49000636813B12B68C3F80863A3694FF0000910
:10B4A0006BB1E06938B1606810B12868C0F8046316
:10B4B0001120BDE8F09FE2610120216105E0C4F8A0
:10B4C0002490A261E160C4F81C9094F82910014313
:10B4D00002D1284600F0F3FC60680028286803D0F9
:10B4E000C0F804630020E4E74FF4A2763146FFF78A
:10B4F000ACFBB2464FF4927B59462868FFF7A0FB9D
:10B5000006464FF484712868FFF79AFB804651463F
:10B510002868FFF795FB074648EA07003043EBD061
:10B5200056EA070007D12146286800F099FCA16976
:10B53000606A8142E0D8C4F818900EB10320B8E7E1
:10B540000FB10F20B5E794F82910012000292968D0
:10B5500001D00860C6E74860C4E700006C350020F1
:10B560002DE9F05F054600790B4600EB400101EB49
:10B57000C000244901EB8004284600F045F810B1D2
:10B580001120BDE8F09F62614FF00009C4F82090DF
:10B59000A36084F828904FF48E784E464146286880
:10B5A000FFF753FB28684FF0010AC0F808A02146B6
:10B5B000286800F0ABFF606808BBD5F800B0676989
:10B5C0000FE000BF94F8280008B10F2615E04146AF
:10B5D0005846FFF735FB0028F4D02146584600F0C6
:10B5E00095FF206AB842F2D3574641462868FFF7D4
:10B5F00027FB0028F9D02868C760C4F814903046AB
:10B60000BFE700006C350020007900EB400101EB42
:10B61000C000044901EB80004069002800D00120EF
:10B62000704700006C3500200149024801F0ECB879
:10B6300098350020002000402DE9F04105461646CF
:10B6400000790F46154A00EBC00102EB810494F823
:10B65000201011B10820BDE8F081114951F82010E7
:10B660002868FFF7D5FC08B11120F4E739462846D1
:10B67000FBF78CFE6660386920601EB1397F284672
:10B68000FDF7FEFC28680821C0F800150020A06125
:10B69000E0616061012184F82010DCE7983500202A
:10B6A00040CC02002DE9F05F044600790E4600EB25
:10B6B000C001DFF8F0A017460AEB81053046FFF71E
:10B6C0002DFCB0B168684FF000084FF4047910B158
:10B6D0002168C1F80893A8694FF0000B80B1E869B0
:10B6E00048B1686810B12068C0F804931120BDE823
:10B6F000F09F1020FBE7EF614FF001082E6102E0A0
:10B70000EE60C5E9067B00254FF488712068FFF7DD
:10B71000ADFA4FF4A2712068FFF7A8FA2068C0F8CC
:10B720003465C0F838752068B8F1000F12D0D0F831
:10B73000001241F02001C0F800122079D04600EB41
:10B74000C0010AEB8100406838B12068C0F804935A
:10B750002846CCE701210160EFE74FF4887A4FF4E7
:10B76000A27951462068FFF77CFA074649462068CF
:10B77000FFF777FA06464FF492712068FFF771FAE7
:10B78000014647EA06000843EBD0227902EBC203E8
:10B7900008EB8302C2F818B001B10325002ED7D000
:10B7A0000F25D5E7983500202DE9F04704460E46D1
:10B7B0000079274900EBC00001EB800517463046B1
:10B7C000FFF7ACFB30B1204600F044F820B1112067
:10B7D000BDE8F0871020FBE76F61AE604FF4907713
:10B7E0004FF0000839462068FFF740FA4FF4AC7676
:10B7F00031462068FFF73AFA2068AA686969C0F8FC
:10B800004425C0F8481520684FF00109C0F8089099
:10B810006868D0B9BA4651462068FFF722FA074651
:10B8200031462068FFF71DFA0743F4D010B14FF0FE
:10B830000F0808E02068C0F80C9031462068FFF738
:10B8400010FA0028F9D0002068614046C0E70000E7
:10B85000983500200079054900EBC00001EB80001D
:10B860004069002800D00120704700009835002072
:10B870002DE9F04105460078002828D115481649E1
:10B880000026401AC008012101EB004710E028699A
:10B89000805DFBF7CFFC040009D0112CF7D03846AF
:10B8A00022460EA1FEF792FD2046FBF793FB761C85
:10B8B000A88AB042EBD8A98A2869084410F8010C7C
:10B8C0000D2804D10A20FBF7B5FC1128FAD0BDE8F9
:10B8D000F08100007CD7020004D702004661696C49
:10B8E000656420726563656976696E67204E55539D
:10B8F000206D6573736167652E204572726F7220CB
:10B90000307825782E20000003490860034801683C
:10B910000029FCD07047000004E5014000E401402C
:10B9200010B550B103280CD10220FCF7D9FC002837
:10B9300007D0BDE81040FBF74DBBBDE8104000F05C
:10B9400079BC10BD0078002807D104483B2140880D
:10B9500076DF002801D0FBF73DBB7047E02A0020CE
:10B96000F0B58BB0002601960D46044689884069E3
:10B9700001AAFBF755FD0AA8CDE908600227ADF83A
:10B980002070ADF822602189A88808AAADDF0028C0
:10B9900019D1A069002816D00998FCF745FB0028AA
:10B9A00011D0019E0EB101203070182102A8FAF7C3
:10B9B00088FD8DF808700394A888ADF810000596EE
:10B9C000A16902A888470BB0F0BD00007CB506460F
:10B9D0008D88C88806EBC504A41D172800D217203F
:10B9E0002188814200D8084660800020207121888B
:10B9F0002846B5DF60B1FFF713F902460F4810493A
:10BA0000401AC008012101EB00400EA1FEF7DEFC48
:10BA10006079002810D1306900280DD01549D1E98E
:10BA20000201CDE90001ADF802506088ADF80400D4
:10BA300032696946304690477CBD000004D7020059
:10BA400004D7020073645F626C655F67617474732E
:10BA50005F65786368616E67655F6D74755F726559
:10BA6000706C7928292072657475726E6564202562
:10BA7000732E000010CC0200F0B587B00C460546CE
:10BA80008E1D8988406906AAFBF7CAFC1821684602
:10BA9000FAF717FD0195A088069AADF80800039201
:10BAA00031882B89002704F11200994202D1738951
:10BAB000022B0DD0AA8991421ED1A96900291BD061
:10BAC0008DF8007004907089ADF81400A96911E038
:10BAD000002A11D0FCF7A8FA20B1069901200870BD
